{
  "_format": "hh3-artifact-1",
  "contractName": "KeynesianBeautyContest",
  "sourceName": "contracts/KeynesianBeautyContest.sol",
  "abi": [
    {
      "anonymous": false,
      "inputs": [
        {
          "indexed": true,
          "internalType": "uint256",
          "name": "gameId",
          "type": "uint256"
        },
        {
          "indexed": true,
          "internalType": "address",
          "name": "winner",
          "type": "address"
        }
      ],
      "name": "GameClear",
      "type": "event"
    },
    {
      "anonymous": false,
      "inputs": [
        {
          "indexed": true,
          "internalType": "uint256",
          "name": "gameId",
          "type": "uint256"
        },
        {
          "indexed": true,
          "internalType": "address",
          "name": "creator",
          "type": "address"
        },
        {
          "indexed": false,
          "internalType": "uint256",
          "name": "entryFee",
          "type": "uint256"
        },
        {
          "indexed": false,
          "internalType": "uint8",
          "name": "maxPlayers",
          "type": "uint8"
        }
      ],
      "name": "GameCreated",
      "type": "event"
    },
    {
      "anonymous": false,
      "inputs": [
        {
          "indexed": true,
          "internalType": "uint256",
          "name": "gameId",
          "type": "uint256"
        },
        {
          "indexed": true,
          "internalType": "address",
          "name": "player",
          "type": "address"
        }
      ],
      "name": "PlayerEliminated",
      "type": "event"
    },
    {
      "anonymous": false,
      "inputs": [
        {
          "indexed": true,
          "internalType": "uint256",
          "name": "gameId",
          "type": "uint256"
        },
        {
          "indexed": true,
          "internalType": "address",
          "name": "player",
          "type": "address"
        }
      ],
      "name": "PlayerJoined",
      "type": "event"
    },
    {
      "anonymous": false,
      "inputs": [
        {
          "indexed": true,
          "internalType": "uint256",
          "name": "gameId",
          "type": "uint256"
        },
        {
          "indexed": true,
          "internalType": "uint256",
          "name": "roundNo",
          "type": "uint256"
        },
        {
          "indexed": true,
          "internalType": "address",
          "name": "winner",
          "type": "address"
        }
      ],
      "name": "RoundSettled",
      "type": "event"
    },
    {
      "anonymous": false,
      "inputs": [
        {
          "indexed": true,
          "internalType": "uint256",
          "name": "gameId",
          "type": "uint256"
        },
        {
          "indexed": false,
          "internalType": "uint8",
          "name": "ruleNumber",
          "type": "uint8"
        }
      ],
      "name": "RuleUnlocked",
      "type": "event"
    },
    {
      "inputs": [
        {
          "internalType": "uint256",
          "name": "entryFee",
          "type": "uint256"
        },
        {
          "internalType": "uint8",
          "name": "maxPlayers",
          "type": "uint8"
        }
      ],
      "name": "createGame",
      "outputs": [
        {
          "internalType": "uint256",
          "name": "",
          "type": "uint256"
        }
      ],
      "stateMutability": "nonpayable",
      "type": "function"
    },
    {
      "inputs": [],
      "name": "emergencyWithdraw",
      "outputs": [],
      "stateMutability": "nonpayable",
      "type": "function"
    },
    {
      "inputs": [
        {
          "internalType": "uint256",
          "name": "gameId",
          "type": "uint256"
        }
      ],
      "name": "endGame",
      "outputs": [],
      "stateMutability": "nonpayable",
      "type": "function"
    },
    {
      "inputs": [
        {
          "internalType": "uint256",
          "name": "",
          "type": "uint256"
        }
      ],
      "name": "games",
      "outputs": [
        {
          "internalType": "uint256",
          "name": "gameId",
          "type": "uint256"
        },
        {
          "internalType": "uint256",
          "name": "entryFee",
          "type": "uint256"
        },
        {
          "internalType": "uint8",
          "name": "maxPlayers",
          "type": "uint8"
        },
        {
          "internalType": "uint8",
          "name": "currentPlayers",
          "type": "uint8"
        },
        {
          "internalType": "enum KeynesianBeautyContest.GameState",
          "name": "state",
          "type": "uint8"
        },
        {
          "internalType": "bool",
          "name": "rule1Active",
          "type": "bool"
        },
        {
          "internalType": "bool",
          "name": "rule2Active",
          "type": "bool"
        },
        {
          "internalType": "bool",
          "name": "rule3Active",
          "type": "bool"
        },
        {
          "internalType": "uint256",
          "name": "currentRound",
          "type": "uint256"
        },
        {
          "internalType": "address",
          "name": "gameCoordinator",
          "type": "address"
        }
      ],
      "stateMutability": "view",
      "type": "function"
    },
    {
      "inputs": [
        {
          "internalType": "uint256",
          "name": "gameId",
          "type": "uint256"
        }
      ],
      "name": "getActivePlayersCount",
      "outputs": [
        {
          "internalType": "uint256",
          "name": "",
          "type": "uint256"
        }
      ],
      "stateMutability": "view",
      "type": "function"
    },
    {
      "inputs": [
        {
          "internalType": "uint256",
          "name": "gameId",
          "type": "uint256"
        }
      ],
      "name": "getGameInfo",
      "outputs": [
        {
          "internalType": "uint256",
          "name": "entryFee",
          "type": "uint256"
        },
        {
          "internalType": "uint8",
          "name": "maxPlayers",
          "type": "uint8"
        },
        {
          "internalType": "uint8",
          "name": "currentPlayers",
          "type": "uint8"
        },
        {
          "internalType": "enum KeynesianBeautyContest.GameState",
          "name": "state",
          "type": "uint8"
        },
        {
          "internalType": "bool",
          "name": "rule1Active",
          "type": "bool"
        },
        {
          "internalType": "bool",
          "name": "rule2Active",
          "type": "bool"
        },
        {
          "internalType": "bool",
          "name": "rule3Active",
          "type": "bool"
        },
        {
          "internalType": "uint256",
          "name": "currentRound",
          "type": "uint256"
        },
        {
          "internalType": "address",
          "name": "gameCoordinator",
          "type": "address"
        }
      ],
      "stateMutability": "view",
      "type": "function"
    },
    {
      "inputs": [
        {
          "internalType": "uint256",
          "name": "gameId",
          "type": "uint256"
        }
      ],
      "name": "getGamePlayers",
      "outputs": [
        {
          "internalType": "address[]",
          "name": "",
          "type": "address[]"
        }
      ],
      "stateMutability": "view",
      "type": "function"
    },
    {
      "inputs": [
        {
          "internalType": "uint256",
          "name": "gameId",
          "type": "uint256"
        },
        {
          "internalType": "address",
          "name": "playerAddr",
          "type": "address"
        }
      ],
      "name": "getPlayerInfo",
      "outputs": [
        {
          "internalType": "int256",
          "name": "score",
          "type": "int256"
        },
        {
          "internalType": "bool",
          "name": "isEliminated",
          "type": "bool"
        }
      ],
      "stateMutability": "view",
      "type": "function"
    },
    {
      "inputs": [
        {
          "internalType": "uint256",
          "name": "gameId",
          "type": "uint256"
        }
      ],
      "name": "joinGame",
      "outputs": [],
      "stateMutability": "payable",
      "type": "function"
    },
    {
      "inputs": [],
      "name": "nextGameId",
      "outputs": [
        {
          "internalType": "uint256",
          "name": "",
          "type": "uint256"
        }
      ],
      "stateMutability": "view",
      "type": "function"
    },
    {
      "inputs": [
        {
          "internalType": "uint256",
          "name": "gameId",
          "type": "uint256"
        },
        {
          "internalType": "uint256",
          "name": "roundNo",
          "type": "uint256"
        },
        {
          "internalType": "address",
          "name": "winner",
          "type": "address"
        },
        {
          "internalType": "int256[]",
          "name": "scoreUpdates",
          "type": "int256[]"
        },
        {
          "internalType": "uint8",
          "name": "newRule",
          "type": "uint8"
        }
      ],
      "name": "settleRound",
      "outputs": [],
      "stateMutability": "nonpayable",
      "type": "function"
    }
  ],
  "bytecode": "0x6080604052348015600e575f5ffd5b506115148061001c5f395ff3fe60806040526004361061009a575f3560e01c80635db896b3116100625780635db896b3146101fb578063a74956d11461021a578063b135bbb01461023b578063d0399bb814610250578063db2e21bc1461026f578063efaa55a014610283575f5ffd5b8063117a5b901461009e57806315a40f491461013a5780633ccd10e91461016657806347e1d5501461019a5780635056c6de146101ce575b5f5ffd5b3480156100a9575f5ffd5b5061011b6100b83660046110db565b5f602081905290815260409020805460018201546002830154600684015460078501546008909501549394929360ff808416946101008086048316956201000090819004841695808516959281048516949190041691906001600160a01b03168a565b6040516101319a99989796959493929190611126565b60405180910390f35b348015610145575f5ffd5b506101596101543660046110db565b610296565b604051610131919061118a565b348015610171575f5ffd5b506101856101803660046111f0565b61032c565b60408051928352901515602083015201610131565b3480156101a5575f5ffd5b506101b96101b43660046110db565b6103ff565b6040516101319998979695949392919061121a565b3480156101d9575f5ffd5b506101ed6101e83660046110db565b610498565b604051908152602001610131565b348015610206575f5ffd5b506101ed610215366004611285565b61053e565b348015610225575f5ffd5b506102396102343660046112ba565b610698565b005b348015610246575f5ffd5b506101ed60015481565b34801561025b575f5ffd5b5061023961026a3660046110db565b610b70565b34801561027a575f5ffd5b50610239610dc8565b6102396102913660046110db565b610e19565b60608160015481106102c35760405162461bcd60e51b81526004016102ba906113b6565b60405180910390fd5b5f83815260208181526040918290206003018054835181840281018401909452808452909183018282801561031f57602002820191905f5260205f20905b81546001600160a01b03168152600190910190602001808311610301575b5050505050915050919050565b5f5f8360015481106103505760405162461bcd60e51b81526004016102ba906113b6565b5f858152602081815260408083206001600160a01b038816845260050190915290205460ff166103c25760405162461bcd60e51b815260206004820152601a60248201527f506c61796572206973206e6f7420696e20746869732067616d6500000000000060448201526064016102ba565b5f858152602081815260408083206001600160a01b03881684526004019091529020600181015460029091015490935060ff169150509250929050565b5f5f5f5f5f5f5f5f5f89600154811061042a5760405162461bcd60e51b81526004016102ba906113b6565b5050505f9788525050506020859052505060409092206001810154600282015460068301546007840154600890940154929660ff80841697506101008085048216975062010000948590048216968285169691850483169590940490911692916001600160a01b0390911690565b5f8160015481106104bb5760405162461bcd60e51b81526004016102ba906113b6565b5f83815260208190526040812090805b600383015481101561053557826004015f8460030183815481106104f1576104f16113e3565b5f9182526020808320909101546001600160a01b0316835282019290925260400190206002015460ff1661052d57816105298161140b565b9250505b6001016104cb565b50949350505050565b5f60018260ff161161059d5760405162461bcd60e51b815260206004820152602260248201527f47616d65206d75737420616c6c6f77206174206c65617374203220706c617965604482015261727360f01b60648201526084016102ba565b60328260ff1611156105e45760405162461bcd60e51b815260206004820152601060248201526f546f6f206d616e7920706c617965727360801b60448201526064016102ba565b600180545f91826105f48361140b565b909155505f818152602081815260408083208481556001810189905560028101805462ffffff1990811660ff8b16908117909255600683018054909116905560078201949094556008810180546001600160a01b0319163390811790915582518a81529384019490945293945084917f79cfcf64ee95f2f8fbda0bd025831724360c020432615f28aac21f03081e3db7910160405180910390a35090505b92915050565b8460015481106106ba5760405162461bcd60e51b81526004016102ba906113b6565b5f8681526020819052604090206008015486906001600160a01b031633146106f45760405162461bcd60e51b81526004016102ba90611423565b8660015f82815260208190526040902060029081015462010000900460ff1690811115610723576107236110f2565b1461076a5760405162461bcd60e51b815260206004820152601760248201527647616d65206973206e6f7420696e2070726f677265737360481b60448201526064016102ba565b5f888152602081905260409020600781015461078790600161146f565b88146107cc5760405162461bcd60e51b815260206004820152601460248201527324b73b30b634b2103937bab73210373ab6b132b960611b60448201526064016102ba565b60038101548651146108205760405162461bcd60e51b815260206004820152601d60248201527f53636f72652075706461746573206c656e677468206d69736d6174636800000060448201526064016102ba565b6001600160a01b0387165f90815260058201602052604090205460ff166108955760405162461bcd60e51b815260206004820152602360248201527f57696e6e6572206973206e6f74206120706c6179657220696e20746869732067604482015262616d6560e81b60648201526084016102ba565b6001600160a01b0387165f90815260048201602052604090206002015460ff16156109025760405162461bcd60e51b815260206004820152601b60248201527f57696e6e65722063616e6e6f7420626520656c696d696e61746564000000000060448201526064016102ba565b5f5b60038201548110156109e8575f826003018281548110610926576109266113e3565b5f9182526020808320909101546001600160a01b031680835260048601909152604090912060028101549192509060ff166109de5788838151811061096d5761096d6113e3565b6020026020010151816001015f8282546109879190611482565b90915550506001810154606319126109de5760028101805460ff191660011790556040516001600160a01b038316908d907f638a014c19f58a705adfdf3c8350f6eecbcab57edc63f1112fef5828840730eb905f90a35b5050600101610904565b5060078101889055600160ff8616148015610a085750600681015460ff16155b15610a5a5760068101805460ff1916600190811790915560405190815289907fdc1f5a36526be95c166c0837f4ebd8f412cecab627cfc3048f442183640c1481906020015b60405180910390a2610b2d565b8460ff166002148015610a7757506006810154610100900460ff16155b15610ac05760068101805461ff0019166101001790556040516002815289907fdc1f5a36526be95c166c0837f4ebd8f412cecab627cfc3048f442183640c148190602001610a4d565b8460ff166003148015610ade5750600681015462010000900460ff16155b15610b2d5760068101805462ff00001916620100001790556040516003815289907fdc1f5a36526be95c166c0837f4ebd8f412cecab627cfc3048f442183640c14819060200160405180910390a25b866001600160a01b0316888a7f1545447ab2e80f46ca3a826062399fae7c316c78dc56dc74da95cc51f5c2264b60405160405180910390a4505050505050505050565b806001548110610b925760405162461bcd60e51b81526004016102ba906113b6565b5f8281526020819052604090206008015482906001600160a01b03163314610bcc5760405162461bcd60e51b81526004016102ba90611423565b8260015f82815260208190526040902060029081015462010000900460ff1690811115610bfb57610bfb6110f2565b14610c425760405162461bcd60e51b815260206004820152601760248201527647616d65206973206e6f7420696e2070726f677265737360481b60448201526064016102ba565b5f84815260208190526040812090600160ff1b815b6003840154811015610cd4575f846003018281548110610c7957610c796113e3565b5f9182526020808320909101546001600160a01b031680835260048801909152604090912060028101549192509060ff16158015610cba5750838160010154135b15610cca57806001015493508194505b5050600101610c57565b506001600160a01b038216610d235760405162461bcd60e51b8152602060048201526015602482015274139bc81d985b1a59081dda5b9b995c88199bdd5b99605a1b60448201526064016102ba565b60028301805462ff0000191662020000179081905560018401545f91610d529161010090910460ff16906114a9565b6040519091506001600160a01b0384169082156108fc029083905f818181858888f19350505050158015610d88573d5f5f3e3d5ffd5b506040516001600160a01b0384169089907fd5e749f8b4018c44803b0d0059e0badaaa989e6f92ccae7aa861e209badf9047905f90a35050505050505050565b333014610e175760405162461bcd60e51b815260206004820152601b60248201527f4f6e6c7920636f6e74726163742063616e2063616c6c2074686973000000000060448201526064016102ba565b565b806001548110610e3b5760405162461bcd60e51b81526004016102ba906113b6565b5f8281526020819052604081209060028281015462010000900460ff1690811115610e6857610e686110f2565b14610ebf5760405162461bcd60e51b815260206004820152602160248201527f47616d65206973206e6f7420616363657074696e67206e657720706c617965726044820152607360f81b60648201526084016102ba565b600281015460ff8082166101009092041610610f0c5760405162461bcd60e51b815260206004820152600c60248201526b11d85b59481a5cc8199d5b1b60a21b60448201526064016102ba565b335f90815260058201602052604090205460ff1615610f6d5760405162461bcd60e51b815260206004820152601f60248201527f506c6179657220616c7265616479206a6f696e656420746869732067616d650060448201526064016102ba565b80600101543414610fb65760405162461bcd60e51b8152602060048201526013602482015272496e636f727265637420656e7472792066656560681b60448201526064016102ba565b600381018054600181810183555f928352602080842090920180546001600160a01b03199081163390811790925560408051606081018252838152808601878152818301888152948852600489018752828820915182546001600160a01b0391909116941693909317815591518285015591516002918201805491151560ff19928316179055600587019094529320805490921681179091559082018054610100900460ff1691611066836114c0565b825460ff91821661010093840a908102908302199091161790925560028401548083169190049091160390506110aa5760028101805462ff00001916620100001790555b604051339084907f87969bc7faf902221a147b95ceba76e011c5efb0339a0a8ee7a2bb82d9cfbbd6905f90a3505050565b5f602082840312156110eb575f5ffd5b5035919050565b634e487b7160e01b5f52602160045260245ffd5b6003811061112257634e487b7160e01b5f52602160045260245ffd5b9052565b8a8152602081018a905260ff89811660408301528816606082015261014081016111536080830189611106565b95151560a082015293151560c085015291151560e08401526101008301526001600160a01b03166101209091015295945050505050565b602080825282518282018190525f918401906040840190835b818110156111ca5783516001600160a01b03168352602093840193909201916001016111a3565b509095945050505050565b80356001600160a01b03811681146111eb575f5ffd5b919050565b5f5f60408385031215611201575f5ffd5b82359150611211602084016111d5565b90509250929050565b89815260ff89811660208301528816604082015261012081016112406060830189611106565b951515608082015293151560a085015291151560c084015260e08301526001600160a01b031661010090910152949350505050565b803560ff811681146111eb575f5ffd5b5f5f60408385031215611296575f5ffd5b8235915061121160208401611275565b634e487b7160e01b5f52604160045260245ffd5b5f5f5f5f5f60a086880312156112ce575f5ffd5b85359450602086013593506112e5604087016111d5565b9250606086013567ffffffffffffffff811115611300575f5ffd5b8601601f81018813611310575f5ffd5b803567ffffffffffffffff81111561132a5761132a6112a6565b8060051b604051601f19603f830116810181811067ffffffffffffffff82111715611357576113576112a6565b60405291825260208184018101929081018b841115611374575f5ffd5b6020850194505b838510156113975784358082526020958601959093500161137b565b5094506113aa9250505060808701611275565b90509295509295909350565b60208082526013908201527211d85b5948191bd95cc81b9bdd08195e1a5cdd606a1b604082015260600190565b634e487b7160e01b5f52603260045260245ffd5b634e487b7160e01b5f52601160045260245ffd5b5f6001820161141c5761141c6113f7565b5060010190565b6020808252602c908201527f4f6e6c792067616d6520636f6f7264696e61746f722063616e2063616c6c207460408201526b3434b990333ab731ba34b7b760a11b606082015260800190565b80820180821115610692576106926113f7565b8082018281125f8312801582168215821617156114a1576114a16113f7565b505092915050565b8082028115828204841417610692576106926113f7565b5f60ff821660ff81036114d5576114d56113f7565b6001019291505056fea264697066735822122015308b9838255dffc01b92dfb52055e7c63b85daf47fccdbd6bddab64b7fffeb64736f6c634300081c0033",
  "linkReferences": {},
  "deployedLinkReferences": {},
  "immutableReferences": {},
  "inputSourceName": "project/contracts/KeynesianBeautyContest.sol",
  "buildInfoId": "solc-0_8_28-b31247409ba12a83337732a1b8a92dcf9482d706"
}